{
  "contractName": "CallMeChallenge",
  "abi": [
    {
      "constant": true,
      "inputs": [],
      "name": "isComplete",
      "outputs": [
        {
          "name": "",
          "type": "bool"
        }
      ],
      "payable": false,
      "stateMutability": "view",
      "type": "function"
    },
    {
      "constant": false,
      "inputs": [],
      "name": "callme",
      "outputs": [],
      "payable": false,
      "stateMutability": "nonpayable",
      "type": "function"
    }
  ],
  "bytecode": "0x608060405260008060006101000a81548160ff02191690831515021790555034801561002a57600080fd5b5060e8806100396000396000f3006080604052600436106049576000357c0100000000000000000000000000000000000000000000000000000000900463ffffffff168063a3c8e39314604e578063b2fa1c9e146062575b600080fd5b348015605957600080fd5b506060608e565b005b348015606d57600080fd5b50607460aa565b604051808215151515815260200191505060405180910390f35b60016000806101000a81548160ff021916908315150217905550565b6000809054906101000a900460ff16815600a165627a7a72305820c09556fdbe09911261c132eb8fee3a9b18577890545bc661c69393210efc85310029",
  "source": "pragma solidity ^0.4.21;\n\ncontract CallMeChallenge {\n    bool public isComplete = false;\n\n    function callme() public {\n        isComplete = true;\n    }\n}\n",
  "sourcePath": "/home/joaquin/etherejo/capture-ether/call-me/contracts/CallMe.sol",
  "compiler": {
    "name": "solc",
    "version": "0.4.22+commit.4cb486ee.Emscripten.clang"
  },
  "schemaVersion": "3.3.4",
  "updatedAt": "2021-04-18T18:29:59.829Z",
  "devdoc": {
    "methods": {}
  },
  "userdoc": {
    "methods": {}
  }
}