{
  "contractName": "CaptureTheEther",
  "abi": [
    {
      "constant": true,
      "inputs": [
        {
          "name": "",
          "type": "address"
        }
      ],
      "name": "nicknameOf",
      "outputs": [
        {
          "name": "",
          "type": "bytes32"
        }
      ],
      "payable": false,
      "stateMutability": "view",
      "type": "function"
    },
    {
      "constant": false,
      "inputs": [
        {
          "name": "nickname",
          "type": "bytes32"
        }
      ],
      "name": "setNickname",
      "outputs": [],
      "payable": false,
      "stateMutability": "nonpayable",
      "type": "function"
    }
  ],
  "bytecode": "0x608060405234801561001057600080fd5b5061016f806100206000396000f30060806040526004361061004c576000357c0100000000000000000000000000000000000000000000000000000000900463ffffffff1680631ae8ab81146100515780636790081c14610082575b600080fd5b34801561005d57600080fd5b5061008060048036038101908080356000191690602001909291905050506100e1565b005b34801561008e57600080fd5b506100c3600480360381019080803573ffffffffffffffffffffffffffffffffffffffff16906020019092919050505061012b565b60405180826000191660001916815260200191505060405180910390f35b806000803373ffffffffffffffffffffffffffffffffffffffff1673ffffffffffffffffffffffffffffffffffffffff168152602001908152602001600020816000191690555050565b600060205280600052604060002060009150905054815600a165627a7a72305820ed3ddbf41864653a76ba0c2f6bbc5b076d5f3f7952ecd0bed749486aa75724280029",
  "source": "pragma solidity ^0.4.21;\n\n// Relevant part of the CaptureTheEther contract.\ncontract CaptureTheEther {\n    mapping (address => bytes32) public nicknameOf;\n\n    function setNickname(bytes32 nickname) public {\n        nicknameOf[msg.sender] = nickname;\n    }\n}\n\n// Challenge contract. You don't need to do anything with this; it just verifies\n// that you set a nickname for yourself.\ncontract NicknameChallenge {\n    CaptureTheEther cte = CaptureTheEther(msg.sender);\n    address player;\n\n    // Your address gets passed in as a constructor parameter.\n    function NicknameChallenge(address _player) public {\n        player = _player;\n    }\n\n    // Check that the first character is not null.\n    function isComplete() public view returns (bool) {\n        return cte.nicknameOf(player)[0] != 0;\n    }\n}\n",
  "sourcePath": "/home/joaquin/etherejo/capture-ether/nickname/contracts/CaptureTheEther.sol",
  "compiler": {
    "name": "solc",
    "version": "0.4.22+commit.4cb486ee.Emscripten.clang"
  },
  "schemaVersion": "3.3.4",
  "updatedAt": "2021-04-18T18:45:30.966Z",
  "devdoc": {
    "methods": {}
  },
  "userdoc": {
    "methods": {}
  }
}