{
  "contractName": "NicknameChallenge",
  "abi": [
    {
      "inputs": [
        {
          "name": "_player",
          "type": "address"
        }
      ],
      "payable": false,
      "stateMutability": "nonpayable",
      "type": "constructor"
    },
    {
      "constant": true,
      "inputs": [],
      "name": "isComplete",
      "outputs": [
        {
          "name": "",
          "type": "bool"
        }
      ],
      "payable": false,
      "stateMutability": "view",
      "type": "function"
    }
  ],
  "bytecode": "0x6080604052336000806101000a81548173ffffffffffffffffffffffffffffffffffffffff021916908373ffffffffffffffffffffffffffffffffffffffff16021790555034801561005057600080fd5b506040516020806102fd8339810180604052810190808051906020019092919050505080600160006101000a81548173ffffffffffffffffffffffffffffffffffffffff021916908373ffffffffffffffffffffffffffffffffffffffff16021790555050610239806100c46000396000f300608060405260043610610041576000357c0100000000000000000000000000000000000000000000000000000000900463ffffffff168063b2fa1c9e14610046575b600080fd5b34801561005257600080fd5b5061005b610075565b604051808215151515815260200191505060405180910390f35b6000807f0100000000000000000000000000000000000000000000000000000000000000026000809054906101000a900473ffffffffffffffffffffffffffffffffffffffff1673ffffffffffffffffffffffffffffffffffffffff16636790081c600160009054906101000a900473ffffffffffffffffffffffffffffffffffffffff166040518263ffffffff167c0100000000000000000000000000000000000000000000000000000000028152600401808273ffffffffffffffffffffffffffffffffffffffff1673ffffffffffffffffffffffffffffffffffffffff168152602001915050602060405180830381600087803b15801561017857600080fd5b505af115801561018c573d6000803e3d6000fd5b505050506040513d60208110156101a257600080fd5b810190808051906020019092919050505060006020811015156101c157fe5b1a7f0100000000000000000000000000000000000000000000000000000000000000027effffffffffffffffffffffffffffffffffffffffffffffffffffffffffffff191614159050905600a165627a7a723058200822056abc62a6fbb5f0b27ad50c8b2ce5b6b9e0de44c99a7823d54ae5dba1b20029",
  "source": "pragma solidity ^0.4.21;\n\n// Relevant part of the CaptureTheEther contract.\ncontract CaptureTheEther {\n    mapping (address => bytes32) public nicknameOf;\n\n    function setNickname(bytes32 nickname) public {\n        nicknameOf[msg.sender] = nickname;\n    }\n}\n\n// Challenge contract. You don't need to do anything with this; it just verifies\n// that you set a nickname for yourself.\ncontract NicknameChallenge {\n    CaptureTheEther cte = CaptureTheEther(msg.sender);\n    address player;\n\n    // Your address gets passed in as a constructor parameter.\n    function NicknameChallenge(address _player) public {\n        player = _player;\n    }\n\n    // Check that the first character is not null.\n    function isComplete() public view returns (bool) {\n        return cte.nicknameOf(player)[0] != 0;\n    }\n}\n",
  "sourcePath": "/home/joaquin/etherejo/capture-ether/nickname/contracts/CaptureTheEther.sol",
  "compiler": {
    "name": "solc",
    "version": "0.4.22+commit.4cb486ee.Emscripten.clang"
  },
  "schemaVersion": "3.3.4",
  "updatedAt": "2021-04-18T18:45:30.967Z",
  "devdoc": {
    "methods": {}
  },
  "userdoc": {
    "methods": {}
  }
}